{
  "contractName": "P2pSwap",
  "abi": [
    {
      "inputs": [
        {
          "internalType": "uint256",
          "name": "_id",
          "type": "uint256"
        }
      ],
      "name": "getSwap",
      "outputs": [
        {
          "internalType": "address",
          "name": "",
          "type": "address"
        },
        {
          "internalType": "address",
          "name": "",
          "type": "address"
        },
        {
          "internalType": "uint256",
          "name": "",
          "type": "uint256"
        },
        {
          "internalType": "address",
          "name": "",
          "type": "address"
        },
        {
          "internalType": "uint256",
          "name": "",
          "type": "uint256"
        },
        {
          "internalType": "uint8",
          "name": "",
          "type": "uint8"
        }
      ],
      "stateMutability": "view",
      "type": "function",
      "constant": true
    },
    {
      "inputs": [
        {
          "internalType": "uint256",
          "name": "_id",
          "type": "uint256"
        },
        {
          "internalType": "address",
          "name": "_token1",
          "type": "address"
        },
        {
          "internalType": "uint256",
          "name": "_value1",
          "type": "uint256"
        },
        {
          "internalType": "address",
          "name": "_token2",
          "type": "address"
        },
        {
          "internalType": "uint256",
          "name": "_value2",
          "type": "uint256"
        }
      ],
      "name": "registerSwap",
      "outputs": [
        {
          "internalType": "bool",
          "name": "",
          "type": "bool"
        }
      ],
      "stateMutability": "nonpayable",
      "type": "function"
    },
    {
      "inputs": [
        {
          "internalType": "uint256",
          "name": "_id",
          "type": "uint256"
        }
      ],
      "name": "cancelSwap",
      "outputs": [
        {
          "internalType": "bool",
          "name": "",
          "type": "bool"
        }
      ],
      "stateMutability": "nonpayable",
      "type": "function"
    },
    {
      "inputs": [
        {
          "internalType": "uint256",
          "name": "_id",
          "type": "uint256"
        }
      ],
      "name": "executeSwap",
      "outputs": [
        {
          "internalType": "bool",
          "name": "",
          "type": "bool"
        }
      ],
      "stateMutability": "nonpayable",
      "type": "function"
    }
  ],
  "bytecode": "0x608060405234801561001057600080fd5b50610edd806100206000396000f3fe608060405234801561001057600080fd5b506004361061004c5760003560e01c80634a0d89ba1461005157806354d6a2b714610140578063a9ab232b14610186578063ac03a63e146101cc575b600080fd5b61007d6004803603602081101561006757600080fd5b8101908080359060200190929190505050610266565b604051808773ffffffffffffffffffffffffffffffffffffffff1673ffffffffffffffffffffffffffffffffffffffff1681526020018673ffffffffffffffffffffffffffffffffffffffff1673ffffffffffffffffffffffffffffffffffffffff1681526020018581526020018473ffffffffffffffffffffffffffffffffffffffff1673ffffffffffffffffffffffffffffffffffffffff1681526020018381526020018260ff1660ff168152602001965050505050505060405180910390f35b61016c6004803603602081101561015657600080fd5b81019080803590602001909291905050506103fd565b604051808215151515815260200191505060405180910390f35b6101b26004803603602081101561019c57600080fd5b8101908080359060200190929190505050610587565b604051808215151515815260200191505060405180910390f35b61024c600480360360a08110156101e257600080fd5b8101908080359060200190929190803573ffffffffffffffffffffffffffffffffffffffff16906020019092919080359060200190929190803573ffffffffffffffffffffffffffffffffffffffff1690602001909291908035906020019092919050505061081b565b604051808215151515815260200191505060405180910390f35b600080600080600080610277610e02565b6000808981526020019081526020016000206040518060c00160405290816000820160009054906101000a900473ffffffffffffffffffffffffffffffffffffffff1673ffffffffffffffffffffffffffffffffffffffff1673ffffffffffffffffffffffffffffffffffffffff1681526020016001820160009054906101000a900473ffffffffffffffffffffffffffffffffffffffff1673ffffffffffffffffffffffffffffffffffffffff1673ffffffffffffffffffffffffffffffffffffffff168152602001600282015481526020016003820160009054906101000a900473ffffffffffffffffffffffffffffffffffffffff1673ffffffffffffffffffffffffffffffffffffffff1673ffffffffffffffffffffffffffffffffffffffff168152602001600482015481526020016005820160009054906101000a900460ff1660ff1660ff16815250509050806000015181602001518260400151836060015184608001518560a001519650965096509650965096505091939550919395565b600080600080848152602001908152602001600020905060008160050160009054906101000a900460ff1660ff161461049e576040517f08c379a00000000000000000000000000000000000000000000000000000000081526004018080602001828103825260128152602001807f53776170206e6f7420617661696c61626c65000000000000000000000000000081525060200191505060405180910390fd5b3373ffffffffffffffffffffffffffffffffffffffff168160000160009054906101000a900473ffffffffffffffffffffffffffffffffffffffff1673ffffffffffffffffffffffffffffffffffffffff1614610563576040517f08c379a000000000000000000000000000000000000000000000000000000000815260040180806020018281038252600d8152602001807f4e6f7420796f757220737761700000000000000000000000000000000000000081525060200191505060405180910390fd5b60028160050160006101000a81548160ff021916908360ff16021790555050919050565b6000806000808481526020019081526020016000209050600073ffffffffffffffffffffffffffffffffffffffff168160000160009054906101000a900473ffffffffffffffffffffffffffffffffffffffff1673ffffffffffffffffffffffffffffffffffffffff161415610665576040517f08c379a00000000000000000000000000000000000000000000000000000000081526004018080602001828103825260148152602001807f5377617020646f6573206e6f742065786973747300000000000000000000000081525060200191505060405180910390fd5b60008160050160009054906101000a900460ff1660ff16146106ef576040517f08c379a00000000000000000000000000000000000000000000000000000000081526004018080602001828103825260128152602001807f53776170206e6f7420617661696c61626c65000000000000000000000000000081525060200191505060405180910390fd5b600033905060008260010160009054906101000a900473ffffffffffffffffffffffffffffffffffffffff16905060008360030160009054906101000a900473ffffffffffffffffffffffffffffffffffffffff16905061079b8460000160009054906101000a900473ffffffffffffffffffffffffffffffffffffffff168486600201548573ffffffffffffffffffffffffffffffffffffffff16610a7f909392919063ffffffff16565b6107f0838560000160009054906101000a900473ffffffffffffffffffffffffffffffffffffffff1686600401548473ffffffffffffffffffffffffffffffffffffffff16610a7f909392919063ffffffff16565b60018460050160006101000a81548160ff021916908360ff1602179055506001945050505050919050565b60008086141561082a57600080fd5b600073ffffffffffffffffffffffffffffffffffffffff168573ffffffffffffffffffffffffffffffffffffffff16141561086457600080fd5b600084141561087257600080fd5b600073ffffffffffffffffffffffffffffffffffffffff168373ffffffffffffffffffffffffffffffffffffffff1614156108ac57600080fd5b60008214156108ba57600080fd5b60008060008881526020019081526020016000209050600073ffffffffffffffffffffffffffffffffffffffff168160000160009054906101000a900473ffffffffffffffffffffffffffffffffffffffff1673ffffffffffffffffffffffffffffffffffffffff1614610996576040517f08c379a00000000000000000000000000000000000000000000000000000000081526004018080602001828103825260138152602001807f5377617020616c7265616479206578697374730000000000000000000000000081525060200191505060405180910390fd5b338160000160006101000a81548173ffffffffffffffffffffffffffffffffffffffff021916908373ffffffffffffffffffffffffffffffffffffffff160217905550858160010160006101000a81548173ffffffffffffffffffffffffffffffffffffffff021916908373ffffffffffffffffffffffffffffffffffffffff160217905550848160020181905550838160030160006101000a81548173ffffffffffffffffffffffffffffffffffffffff021916908373ffffffffffffffffffffffffffffffffffffffff160217905550828160040181905550600191505095945050505050565b610b66846323b872dd60e01b858585604051602401808473ffffffffffffffffffffffffffffffffffffffff1673ffffffffffffffffffffffffffffffffffffffff1681526020018373ffffffffffffffffffffffffffffffffffffffff1673ffffffffffffffffffffffffffffffffffffffff1681526020018281526020019350505050604051602081830303815290604052907bffffffffffffffffffffffffffffffffffffffffffffffffffffffff19166020820180517bffffffffffffffffffffffffffffffffffffffffffffffffffffffff8381831617835250505050610b6c565b50505050565b610b8b8273ffffffffffffffffffffffffffffffffffffffff16610db7565b610bfd576040517f08c379a000000000000000000000000000000000000000000000000000000000815260040180806020018281038252601f8152602001807f5361666545524332303a2063616c6c20746f206e6f6e2d636f6e74726163740081525060200191505060405180910390fd5b600060608373ffffffffffffffffffffffffffffffffffffffff16836040518082805190602001908083835b60208310610c4c5780518252602082019150602081019050602083039250610c29565b6001836020036101000a0380198251168184511680821785525050505050509050019150506000604051808303816000865af19150503d8060008114610cae576040519150601f19603f3d011682016040523d82523d6000602084013e610cb3565b606091505b509150915081610d2b576040517f08c379a00000000000000000000000000000000000000000000000000000000081526004018080602001828103825260208152602001807f5361666545524332303a206c6f772d6c6576656c2063616c6c206661696c656481525060200191505060405180910390fd5b600081511115610db157808060200190516020811015610d4a57600080fd5b8101908080519060200190929190505050610db0576040517f08c379a000000000000000000000000000000000000000000000000000000000815260040180806020018281038252602a815260200180610e7e602a913960400191505060405180910390fd5b5b50505050565b60008060007fc5d2460186f7233c927e7db2dcc703c0e500b653ca82273b7bfad8045d85a47060001b9050833f9150808214158015610df957506000801b8214155b92505050919050565b6040518060c00160405280600073ffffffffffffffffffffffffffffffffffffffff168152602001600073ffffffffffffffffffffffffffffffffffffffff16815260200160008152602001600073ffffffffffffffffffffffffffffffffffffffff16815260200160008152602001600060ff168152509056fe5361666545524332303a204552433230206f7065726174696f6e20646964206e6f742073756363656564a264697066735822122049f32d707d702d605240e25efe6a15132c0f05e389146a1a40ee55553ec3608c64736f6c63430006020033",
  "source": "// SPDX-License-Identifier: MIT\npragma solidity >=0.6.0;\n\nimport \"@openzeppelin/contracts/token/ERC20/IERC20.sol\";\nimport \"@openzeppelin/contracts/token/ERC20/SafeERC20.sol\";\n\n/**\n * @title P2pSwap\n * @dev Basic peer to per swap. Alice exchanging X tok1 with Y tok2 with Bob\n **/\ncontract P2pSwap {\n    using SafeERC20 for IERC20;\n    struct Swap {\n        address aliceAddress;\n        address token1;\n        uint256 value1;\n        address token2;\n        uint256 value2;\n        uint8 executed; // 0 - pending, 1 - executed, 2 - canceled\n    }\n\n    mapping(uint256 => Swap) swaps;\n\n    function getSwap(uint256 _id)\n    public view returns (address, address, uint256, address, uint256, uint8) {\n        Swap memory swap = swaps[_id];\n        return (\n            swap.aliceAddress,\n            swap.token1,\n            swap.value1,\n            swap.token2,\n            swap.value2,\n            swap.executed\n        );\n    }\n\n    function registerSwap(\n        uint256 _id,\n        address _token1,\n        uint256 _value1,\n        address _token2,\n        uint256 _value2)\n    public returns (bool) {\n        require(_id != 0);\n        require(_token1 != address(0));\n        require(_value1 != 0);\n        require(_token2 != address(0));\n        require(_value2 != 0);\n        Swap storage swap = swaps[_id];\n        require(swap.aliceAddress == address(0), \"Swap already exists\");\n        swap.aliceAddress = msg.sender;\n        swap.token1 = _token1;\n        swap.value1 = _value1;\n        swap.token2 = _token2;\n        swap.value2 = _value2;\n        return true;\n    }\n\n    function cancelSwap(uint256 _id) public returns (bool) {\n        Swap storage swap = swaps[_id];\n        require(swap.executed == 0, \"Swap not available\");\n        require(swap.aliceAddress == msg.sender, \"Not your swap\");\n        swap.executed = 2;\n    }\n\n    function executeSwap(uint256 _id)\n    public returns (bool) {\n        Swap storage swap = swaps[_id];\n        require(swap.aliceAddress != address(0), \"Swap does not exists\");\n        require(swap.executed == 0, \"Swap not available\");\n        address _bob = msg.sender;\n        IERC20 Token1 = IERC20(swap.token1);\n        IERC20 Token2 = IERC20(swap.token2);\n        // Swap. Make sure to set the allowances in advance\n        Token1.safeTransferFrom(swap.aliceAddress, _bob, swap.value1);\n        Token2.safeTransferFrom(_bob, swap.aliceAddress, swap.value2);\n        swap.executed = 1;\n        return true;\n    }\n}",
  "sourcePath": "/home/naiemk/nk/unifyre-app-p2pswap/contracts/contracts/P2pSwap.sol",
  "compiler": {
    "name": "solc",
    "version": "0.6.2+commit.bacdbe57.Emscripten.clang"
  },
  "schemaVersion": "3.2.0",
  "updatedAt": "2020-08-13T01:14:03.476Z",
  "networkType": "ethereum",
  "devdoc": {
    "details": "Basic peer to per swap. Alice exchanging X tok1 with Y tok2 with Bob*",
    "methods": {},
    "title": "P2pSwap"
  },
  "userdoc": {
    "methods": {}
  }
}